:020000040800F2
:10000000B0070020CD0100082D1B00086D06000878
:10001000291B0008DD030008BF25000800000000C0
:10002000000000000000000000000000FD210008AA
:10003000E103000800000000C11B0008D5230008F0
:10004000E7010008E7010008E70100081D1E00089D
:10005000E7010008E7010008E7010008E7010008E0
:10006000E7010008E7010008E5030008E7010008D0
:10007000E7010008E7010008E7010008E7010008C0
:10008000E7010008E7010008E7010008E7010008B0
:10009000E7010008E7010008E7010008E7010008A0
:1000A000E7010008E7010008E7010008E701000890
:1000B000E701000839240008E7010008E70100080B
:1000C000E7010008E7010008E7010008E701000870
:1000D000E701000897250008992500089B250008DE
:1000E000E7010008E7010008E7010008E701000850
:1000F000E7010008E7010008E7010008E701000840
:10010000E7010008E7010008F9240008E7010008FA
:100110009325000895250008E7010008E70100087D
:10012000E7010008E7010008E7010008E70100080F
:1001300000F002F800F03AF80AA090E8000C8244BF
:100140008344AAF10107DA4501D100F02FF8AFF29C
:10015000090EBAE80F0013F0010F18BFFB1A43F0A5
:1001600001031847B4790000D4790000103A24BF85
:1001700078C878C1FAD8520724BF30C830C144BF0C
:1001800004680C607047000000230024002500264E
:10019000103A28BF78C1FBD8520728BF30C148BFEA
:1001A0000B6070471FB51FBD10B510BD00F0BCF847
:1001B0001146FFF7F7FF04F055FA00F0DAF803B440
:1001C000FFF7F2FF03BC00F0DDF8000009488047AC
:1001D00009480047FEE7FEE7FEE7FEE7FEE7FEE729
:1001E000FEE7FEE7FEE7FEE704480549054A064B41
:1001F00070470000D923000831010008B001002039
:10020000B0070020B0030020B0030020032A40F212
:10021000308010F0030C00F0158011F8013BBCF1A8
:10022000020F624498BF11F801CB00F8013B38BFC0
:1002300011F8013BA2F1040298BF00F801CB38BFCE
:1002400000F8013B11F0030300F02580083AC0F0EC
:10025000088051F8043B083A51F804CBA0E8081094
:10026000F5E7121D5CBF51F8043B40F8043BAFF3C7
:100270000080D20724BF11F8013B11F801CB48BF21
:1002800011F8012B24BF00F8013B00F801CB48BF57
:1002900000F8012B704710B5203AC0F00B80B1E890
:1002A0001850203AA0E81850B1E81850A0E81850AB
:1002B000BFF4F5AF5FEA027C24BFB1E81850A0E8B4
:1002C000185044BF18C918C0BDE810405FEA827CCE
:1002D00024BF51F8043B40F8043B08BF7047D207E5
:1002E00028BF31F8023B48BF11F8012B28BF20F886
:1002F000023B48BF00F8012B7047704770477047BA
:1003000010B500F009F8006810BD10B5044600F003
:1003100003F8046010BD0000004870474C01002045
:10032000004870474C0100207546FFF7F9FFAE46C4
:1003300005006946534620F00700854618B020B5F1
:10034000FFF752FFBDE820404FF000064FF00007D6
:100350004FF000084FF0000B21F00701AC46ACE86D
:10036000C009ACE8C009ACE8C009ACE8C0098D46DA
:10037000704710B50446AFF300802046BDE810403A
:10038000FFF71DBF01491820ABBEFEE726000200A3
:10039000704710B5012001F045FC002001F042FC3F
:1003A00010BD000008B501460020009003480090F1
:1003B0000098084400900098008808BD006C004038
:1003C00008B500220092044A0092009A024400926A
:1003D000009A116008BD0000006C004000BFFEE7FD
:1003E0007047000010B50A2002F096F90C4800682A
:1003F00088B90C48006808B9012000E000200949CC
:1004000008600948D0F8940108B9012000E00020F4
:10041000034984310860102000F008F810BD000086
:1004200010012342948121420000234201490860C7
:10043000704700001404014051B18200A2F1C04293
:10044000126842F001038200A2F1C042136009E089
:100450008200A2F1C0421268034B1A408300A3F14C
:10046000C0431A6070470000FEFF0F00D0E9011280
:100470001143C26811430269114342691143826901
:100480001143C2691143026A1143426A1143826AED
:100490001143C26A1143026B114302689200A2F138
:1004A000C0421160816808290BD101688900A1F15F
:1004B000C041096841F0400201688900A1F1C041D2
:1004C0000A60416B0968426B526841EA0211426B53
:1004D000926841EA0221426B928941EA0241426BF1
:1004E000128A41EA0251426B127D41EA0261426B7B
:1004F000926911430268521C9200A2F1C04211603D
:10050000C16AB1F5804F1BD1816B0968826B52685B
:1005100041EA0211826B926841EA0221826B128ADF
:1005200041EA0251826B127D41EA0261826B92695B
:10053000114302689200A2F1C042C2F8041107E020
:100540006FF0704201688900A1F1C041C1F8042137
:1005500070472DE9F04102460025002600200023C7
:100560000024002791F803C00CF00F0591F803C098
:100570000CF0100CBCF1000F03D091F802C04CEA53
:10058000050591F800C0BCF1000F31D014680020BF
:100590002BE04FF0010C0CFA00F3B1F800C00CEAAC
:1005A00003069E4220D183004FF00F0C0CFA03F794
:1005B000BC4305FA03FC4CEA040491F803C0BCF107
:1005C000280F06D14FF0010C0CFA00FCC2F814C041
:1005D0000AE091F803C0BCF1480F05D14FF0010CBF
:1005E0000CFA00FCC2F810C0401C0828D1D31460DB
:1005F000B1F800C0BCF1FF0F34DD546800202EE0DC
:1006000000F1080C4FF0010808FA0CF3B1F800C033
:100610000CEA03069E4221D183004FF00F0C0CFA26
:1006200003F7BC4305FA03FC4CEA040491F803C049
:10063000BCF1280F05D100F1080C08FA0CF8C2F83B
:10064000148091F803C0BCF1480F07D100F1080CE9
:100650004FF0010808FA0CF8C2F81080401C082876
:10066000CED35460BDE8F0810161704700BFFEE762
:100670000146CA1701EB92729210A1EB820292B965
:10068000642091FBF0F200FB121050B94FF4C870D7
:1006900091FBF0F200FB121008B901207047002016
:1006A000FCE70120FAE70020F8E7000070B50446F7
:1006B000002609480588408845430021084601F086
:1006C000CFF801F01DFA00BF02E004480480761C58
:1006D000AE42FAD370BD0000400100200008006C5B
:1006E0002DE9F84F06460F4614469846DDF828A037
:1006F000B81B401C80B20090A8EB0400401C1FFAFD
:1007000080FB002515E0601981B2304601F0A8F8A1
:1007100001F0F6F94FF0000906E00848A0F800A043
:1007200009F101001FFA80F900988145F5DB681C8A
:1007300085B25D45E7DBBDE8F88F00000008006C7E
:1007400000B54FF4245001F0D5F900BD70B5054651
:100750000E4614463146284601F082F80249C88800
:10076000214601F0D7F970BD4001002000B5A3B0CB
:10077000012140F2E91001F045FA10208DF88B00BC
:100780000720ADF8880003208DF88A0022A9FE48D2
:10079000FFF7DFFE18208DF88B004CF23370ADF8B8
:1007A000880003208DF88A0022A9F848FFF7D1FEBF
:1007B00018208DF88B004FF68070ADF8880003206C
:1007C0008DF88A0022A9F248FFF7C3FE18208DF8A1
:1007D0008B004FF46060ADF8880003208DF88A002C
:1007E00022A9EC48FFF7B5FE18208DF88B0041F2E6
:1007F0000100ADF8880003208DF88A0022A9E648A0
:10080000FFF7A7FE0121080201F0DCF90020129099
:100810000D9001200C9000200F90109011900F204F
:100820000E9000200B9006900590089009900A9079
:1008300003200790002018900620139000201790A6
:1008400014904FF480401E901020169000201590B8
:100850000CA8209000201D901B9019901A901F90BA
:100860004FF480501C9005A8219013A8FFF7FEFDBF
:1008700001210620FFF7E0FD0121C348FFF7F4FE48
:1008800055214FF4704001F045F9AA214FF20100C3
:1008900001F040F952214FF2020001F03BF908212A
:1008A0004FF2030001F036F901214FF2040001F08C
:1008B00031F90D214FF4304001F02CF90D214BF2AC
:1008C000010001F027F90D214BF2020001F022F99D
:1008D00034214FF4364001F01DF934214BF2016010
:1008E00001F018F934214BF2026001F013F90D21E7
:1008F0004FF4314001F00EF90D214BF2011001F0DF
:1009000009F90D214BF2021001F004F934214FF4E2
:10091000374001F0FFF834214BF2017001F0FAF892
:1009200034214BF2027001F0F5F800214FF432400F
:1009300001F0F0F800214BF2012001F0EBF800216A
:100940004BF2022001F0E6F824214FF4384001F088
:10095000E1F824214BF6010001F0DCF824214BF6EC
:10096000020001F0D7F801214FF43F4001F0D2F826
:100970000F214FF4334001F0CDF80F214BF201303D
:1009800001F0C8F80F214BF2023001F0C3F8342116
:100990004FF4394001F0BEF834214BF6011001F05C
:1009A000B9F834214BF6021001F0B4F808214FF4E5
:1009B000354001F0AFF808214BF2015001F0AAF8E0
:1009C00008214BF2025001F0A5F803214FF44240F8
:1009D00001F0A0F824214FF43A4001F09BF82421C3
:1009E0004BF6012001F096F824214BF6022001F08D
:1009F00091F800214FF43C4001F08CF878214BF63F
:100A0000014001F087F800214BF6024001F082F826
:100A100000214FF43D4001F07DF878214BF6015064
:100A200001F078F800214BF6025001F073F8002134
:100A30004FF43E4001F06EF864214BF6016001F086
:100A400069F800214FF4514001F064F833214DF270
:100A5000011001F05FF800214DF2021001F05AF888
:100A600034214DF2031001F055F800214DF204102D
:100A700001F050F83A214DF2051001F04BF8002139
:100A80004DF2061001F046F84A214DF2071001F030
:100A900041F800214DF2081001F03CF85C214DF2C4
:100AA000091001F037F800214DF20A1001F032F878
:100AB00081214DF20B1001F02DF800214DF20C10A8
:100AC00001F028F8A6214DF20D1001F023F80021C5
:100AD0004DF20E1001F01EF8E5214DF20F1001F05D
:100AE00019F801214DF2101001F014F813214DF204
:100AF000111001F00FF801214DF2121001F00AF867
:100B000054214DF2131001F005F801214DF214109B
:100B100001F000F882214DF2151000F0FBFF0121D9
:100B20004DF2161000F0F6FFCA214DF2171000F03A
:100B3000F1FF02214DF2181000F0ECFF00214DF200
:100B4000191000F0E7FF02214DF21A1000F0E2FF49
:100B500001214DF21B1000F0DDFF02214DF21C10AF
:100B600000F0D8FF34214DF21D1000F0D3FF022118
:100B70004DF21E1000F0CEFF67214DF21F1000F065
:100B8000C9FF02210AE00000000C014000140140EE
:100B900000180140001C0140002001404DF22010CF
:100BA00000F0B8FF84214DF2211000F0B3FF0221C4
:100BB0004DF2221000F0AEFFA4214DF2231000F000
:100BC000A9FF02214DF2241000F0A4FFB7214DF23D
:100BD000251000F09FFF02214DF2261000F09AFF31
:100BE000CF214DF2271000F095FF02214DF2281081
:100BF00000F090FFDE214DF2291000F08BFF022162
:100C00004DF22A1000F086FFF2214DF22B1000F079
:100C100081FF02214DF22C1000F07CFFFE214DF2ED
:100C20002D1000F077FF03214DF22E1000F072FF1F
:100C300010214DF22F1000F06DFF03214DF2301006
:100C400000F068FF33214DF2311000F063FF032103
:100C50004DF2321000F05EFF6D214DF2331000F0C6
:100C600059FF00214FF4524000F054FF33214DF260
:100C7000012000F04FFF00214DF2022000F04AFF5A
:100C800034214DF2032000F045FF00214DF20420F5
:100C900000F040FF3A214DF2052000F03BFF00211B
:100CA0004DF2062000F036FF4A214DF2072000F0F9
:100CB00031FF00214DF2082000F02CFF5C214DF2A5
:100CC000092000F027FF00214DF20A2000F022FF4A
:100CD00081214DF20B2000F01DFF00214DF20C2070
:100CE00000F018FFA6214DF20D2000F013FF0021A7
:100CF0004DF20E2000F00EFFE5214DF20F2000F026
:100D000009FF01214DF2102000F004FF13214DF2E4
:100D1000112000F0FFFE01214DF2122000F0FAFE3A
:100D200054214DF2132000F0F5FE01214DF2142064
:100D300000F0F0FE82214DF2152000F0EBFE0121C3
:100D40004DF2162000F0E6FECA214DF2172000F009
:100D5000E1FE02214DF2182000F0DCFE00214DF2F0
:100D6000192000F0D7FE02214DF21A2000F0D2FE29
:100D700001214DF21B2000F0CDFE02214DF21C207E
:100D800000F0C8FE34214DF21D2000F0C3FE022108
:100D90004DF21E2000F0BEFE67214DF21F2000F034
:100DA000B9FE02214DF2202000F0B4FE84214DF264
:100DB000212000F0AFFE02214DF2222000F0AAFE19
:100DC000A4214DF2232000F0A5FE02214DF22420A3
:100DD00000F0A0FEB7214DF2252000F09BFE02217D
:100DE0004DF2262000F096FECF214DF2272000F094
:100DF00091FE02214DF2282000F08CFEDE214DF202
:100E0000292000F087FE02214DF22A2000F082FE08
:100E1000F2214DF22B2000F07DFE02214DF22C201C
:100E200000F078FEFE214DF22D2000F073FE03212C
:100E30004DF22E2000F06EFE10214DF22F2000F01A
:100E400069FE03214DF2302000F064FE33214DF2A3
:100E5000312000F05FFE03214DF2322000F05AFEF7
:100E60006D214DF2332000F055FE00214FF4534028
:100E700000F050FE33214DF2013000F04BFE002116
:100E80004DF2023000F046FE34214DF2033000F006
:100E900041FE00214DF2043000F03CFE3A214DF2BB
:100EA000053000F037FE00214DF2063000F032FE32
:100EB0004A214DF2073000F02DFE00214DF208309E
:100EC00000F028FE5C214DF2093000F023FE0021E5
:100ED0004DF20A3000F01EFE81214DF20B3000F081
:100EE00019FE00214DF20C3000F014FEA6214DF247
:100EF0000D3000F00FFE00214DF20E3000F00AFE22
:100F0000E5214DF20F3000F005FE01214DF21030C9
:100F100000F000FE13214DF2113000F0FBFD012125
:100F20004DF2123000F0F6FD54214DF2133000F076
:100F3000F1FD01214DF2143000F0ECFD82214DF263
:100F4000153000F0E7FD01214DF2163000F0E2FD12
:100F5000CA214DF2173000F0DDFD02214DF21830AC
:100F600000F0D8FD00214DF2193000F0D3FD022130
:100F70004DF21A3000F0CEFD01214DF21B3000F091
:100F8000C9FD02214DF21C3000F0C4FD34214DF2A8
:100F90001D3000F0BFFD02214DF21E3000F0BAFD01
:100FA00067214DF21F3000F0B5FD02214DF22030D7
:100FB00000F0B0FD84214DF2213000F0ABFD0221A4
:100FC0004DF2223000F0A6FDA4214DF2233000F0B6
:100FD000A1FD02214DF2243000F09CFDB7214DF21D
:100FE000253000F097FD02214DF2263000F092FDF1
:100FF000CF214DF2273000F08DFD02214DF2283037
:1010000000F088FDDE214DF2293000F083FD022141
:101010004DF22A3000F07EFDF2214DF22B3000F02F
:1010200079FD02214DF22C3000F074FDFE214DF2CD
:101030002D3000F06FFD03214DF22E3000F06AFDDF
:1010400010214DF22F3000F065FD03214DF23030BC
:1010500000F060FD33214DF2313000F05BFD0321E3
:101060004DF2323000F056FD6D214DF2333000F07C
:1010700051FD00214FF4544000F04CFD33214DF25E
:10108000014000F047FD00214DF2024000F042FD1A
:1010900034214DF2034000F03DFD00214DF20440AB
:1010A00000F038FD3A214DF2054000F033FD0021FB
:1010B0004DF2064000F02EFD4A214DF2074000F0AF
:1010C00029FD00214DF2084000F024FD5C214DF285
:1010D000094000F01FFD00214DF20A4000F01AFD0A
:1010E00081214DF20B4000F015FD00214DF20C4026
:1010F00000F010FDA6214DF20D4000F00BFD002187
:101100004DF20E4000F006FDE5214DF20F4000F0DB
:1011100001FD01214DF2104000F0FCFC13214DF2C5
:10112000114000F0F7FC01214DF2124000F0F2FCFA
:1011300054214DF2134000F0EDFC01214DF214401A
:1011400000F0E8FC82214DF2154000F0E3FC0121A3
:101150004DF2164000F0DEFCCA214DF2174000F0BF
:10116000D9FC02214DF2184000F0D4FC00214DF2D0
:10117000194000F0CFFC02214DF21A4000F0CAFCE9
:1011800001214DF21B4000F0C5FC02214DF21C4034
:1011900000F0C0FC34214DF21D4000F0BBFC0221E8
:1011A0004DF21E4000F0B6FC67214DF21F4000F0EA
:1011B000B1FC02214DF2204000F0ACFC84214DF244
:1011C000214000F0A7FC02214DF2224000F0A2FCD9
:1011D000A4214DF2234000F09DFC02214DF2244059
:1011E00000F098FCB7214DF2254000F093FC02215D
:1011F0004DF2264000F08EFCCF214DF2274000F04A
:1012000089FC02214DF2284000F084FCDE214DF2E1
:10121000294000F07FFC02214DF22A4000F07AFCC8
:10122000F2214DF22B4000F075FC02214DF22C40D2
:1012300000F070FCFE214DF22D4000F06BFC03210C
:101240004DF22E4000F066FC10214DF22F4000F0D0
:1012500061FC03214DF2304000F05CFC33214DF283
:10126000314000F057FC03214DF2324000F052FCB7
:101270006D214DF2334000F04DFC00214FF45540FC
:1012800000F048FC33214DF2015000F043FC0021F6
:101290004DF2025000F03EFC34214DF2035000F0BC
:1012A00039FC00214DF2045000F034FC3A214DF29B
:1012B000055000F02FFC00214DF2065000F02AFCF2
:1012C0004A214DF2075000F025FC00214DF2085054
:1012D00000F020FC5C214DF2095000F01BFC0021C5
:1012E0004DF20A5000F016FC81214DF20B5000F037
:1012F00011FC00214DF20C5000F00CFCA6214DF227
:101300000D5000F007FC00214DF20E5000F002FCE1
:10131000E5214DF20F5000F0FDFB01214DF2105080
:1013200000F0F8FB13214DF2115000F0F3FB012106
:101330004DF2125000F0EEFB54214DF2135000F02C
:10134000E9FB01214DF2145000F0E4FB82214DF243
:10135000155000F0DFFB01214DF2165000F0DAFBD2
:10136000CA214DF2175000F0D5FB02214DF2185062
:1013700000F0D0FB00214DF2195000F0CBFB022110
:101380004DF21A5000F0C6FB01214DF21B5000F047
:10139000C1FB02214DF21C5000F0BCFB34214DF288
:1013A0001D5000F0B7FB02214DF21E5000F0B2FBC1
:1013B00067214DF21F5000F0ADFB02214DF220508D
:1013C00000F0A8FB84214DF2215000F0A3FB022184
:1013D0004DF2225000F09EFBA4214DF2235000F06C
:1013E00099FB02214DF2245000F094FBB7214DF2FD
:1013F000255000F08FFB02214DF2265000F08AFBB1
:10140000CF214DF2275000F085FB02214DF22850EC
:1014100000F080FBDE214DF2295000F07BFB022121
:101420004DF22A5000F076FBF2214DF22B5000F0E5
:1014300071FB02214DF22C5000F06CFBFE214DF2AD
:101440002D5000F067FB03214DF22E5000F062FB9F
:1014500010214DF22F5000F05DFB03214DF2305072
:1014600000F058FB33214DF2315000F053FB0321C3
:101470004DF2325000F04EFB6D214DF2335000F032
:1014800049FB00214FF4564000F044FB33214DF25C
:10149000016000F03FFB00214DF2026000F03AFBDA
:1014A00034214DF2036000F035FB00214DF2046061
:1014B00000F030FB3A214DF2056000F02BFB0021DB
:1014C0004DF2066000F026FB4A214DF2076000F065
:1014D00021FB00214DF2086000F01CFB5C214DF265
:1014E000096000F017FB00214DF20A6000F012FBCA
:1014F00081214DF20B6000F00DFB00214DF20C60DC
:1015000000F008FBA6214DF20D6000F003FB002166
:101510004DF20E6000F0FEFAE5214DF20F6000F092
:10152000F9FA01214DF2106000F0F4FA13214DF2A6
:10153000116000F0EFFA01214DF2126000F0EAFABA
:1015400054214DF2136000F0E5FA01214DF21460D0
:1015500000F0E0FA82214DF2156000F0DBFA012183
:101560004DF2166000F0D6FACA214DF2176000F075
:10157000D1FA02214DF2186000F0CCFA00214DF2B0
:10158000196000F0C7FA02214DF21A6000F0C2FAA9
:1015900001214DF21B6000F0BDFA02214DF21C60EA
:1015A00000F0B8FA34214DF21D6000F0B3FA0221C8
:1015B0004DF21E6000F0AEFA67214DF21F6000F0A0
:1015C000A9FA02214DF2206000F0A4FA84214DF224
:1015D000216000F09FFA02214DF2226000F09AFA99
:1015E000A4214DF2236000F095FA02214DF224600F
:1015F00000F090FAB7214DF2256000F08BFA02213D
:101600004DF2266000F086FACF214DF2276000F0FF
:1016100081FA02214DF2286000F07CFADE214DF2C1
:10162000296000F077FA02214DF22A6000F072FA88
:10163000F2214DF22B6000F06DFA02214DF22C6088
:1016400000F068FAFE214DF22D6000F063FA0321EC
:101650004DF22E6000F05EFA10214DF22F6000F086
:1016600059FA03214DF2306000F054FA33214DF263
:10167000316000F04FFA03214DF2326000F04AFA77
:101680006D214DF2336000F045FA55214FF4704062
:1016900000F040FAAA214FF2010000F03BFA52217B
:1016A0004FF2020000F036FA08214FF2030000F07A
:1016B00031FA00214FF2040000F02CFACC214FF453
:1016C000314000F027FA00214BF2011000F022FA1D
:1016D00005214FF4364000F01DFA70214FF43740D9
:1016E00000F018FA70214BF2017000F013FA01219A
:1016F0004FF4384000F00EFA03214BF6010000F0E1
:1017000009FA03214BF6020000F004FA03214BF61C
:10171000030000F0FFF902214FF43C4000F0FAF919
:1017200000214BF6014000F0F5F900214BF6024094
:1017300000F0F0F9D0214FF4494000F0EBF902211C
:101740004CF6011000F0E6F950214CF6021000F0C2
:10175000E1F950214CF6031000F0DCF950214CF671
:10176000041000F0D7F900214FF4545000F0D2F9E2
:1017700055214FF4685000F0CDF94FF4885000F037
:10178000B9F9782000F0EEFFFEF7DAFF4FF4487069
:10179000234948804FF4F07008804FF43050C880DF
:1017A0004FF4285008814FF42C50488100201D49E7
:1017B00008804FF6FF701C49088008460088FEF735
:1017C00075FF4FF6E0704FF448734FF43D724FF4DD
:1017D000F07100900020FEF783FF4FF6E0700021CB
:1017E00012A21823CDE90032CDE902104FF4EB72BA
:1017F00040F2FE210A2000F025F94FF6E0700021AA
:101800000DA21823CDE90032CDE902104FF4B672D3
:1018100040F2FE21742000F015F923B000BD000055
:1018200040010020180000201A00002050726F6351
:101830006573733A000000004C43445F496E69745D
:1018400020446F6E6500000010B50246012000E0E4
:1018500050430B1EA1F10104E1B2F9D110BD00000B
:1018600030B504460D4621120B4A108900F052F99A
:10187000E1B2094A1289521C90B200F04BF92912C8
:10188000054A508900F046F9E9B2034A5289521CD0
:1018900090B200F03FF930BD400100202DE9F84F33
:1018A00080460E4617461C46B3462046E31704EB17
:1018B0005373DB1021464FEAE47C04EB5C7C4FEA77
:1018C000EC0CA4EBCC0CBCF1000F02D04FF0010CDF
:1018D00001E04FF0000C6344224604EBD27C4FEA57
:1018E0006C0C03FB0CF3DBB20093A7F12000C7B232
:1018F000002556E00C2C07D107EB47002B4901EBE4
:10190000800010F805A013E0102C05D1284800EB4A
:10191000071010F805A00BE0182C07D107EBC70043
:10192000244901EB800010F805A001E0BDE8F88F24
:101930004FF000092FE00AF0800030B11E48028805
:1019400031464046FEF702FF07E00A9828B91B48D7
:10195000028831464046FEF7F9FE4FEA4A604FEAF8
:10196000106A701C86B216484088B04200DCDDE781
:10197000A6EB0B00A0420AD15E4608F101001FFA57
:1019800080F80F480088404500DCCFE706E009F109
:10199000010000F0FF09B9F1080FCCDB00BF681CA3
:1019A000C5B200988542A5DB00BFBFE7B66200085C
:1019B0002A6700081A6D0008180000201A0000208D
:1019C000400100202DE9FF4F82B0074690461D469A
:1019D000DDE910AB0F9E1948A0F800A01848A0F848
:1019E00000B000241EE0281B401EC1B20A20FFF7F1
:1019F0002BFFB8FBF0F00A21B0FBF1F201FB12095A
:101A0000002006EBD671491001FB0471CDE90006F8
:101A100088B209F13001CAB233460399FFF73EFF9D
:101A2000601CC4B2AC42DEDB0020044908804FF6E3
:101A3000FF700349088006B0BDE8F08F1800002051
:101A40001A0000202DE9FC4F04460D4616461F469D
:101A5000DDE90DBADDE90B89E0B201902048A0F87C
:101A600000B02048A0F800A0E81983B2A01981B204
:101A70002A462046CDF800A0FEF732FE301986B285
:101A8000781987B219E0B44203DB019C05EB08002A
:101A900085B2BD4200DB18E00020009099F80020DC
:101AA000434629462046FFF7F9FE404608EBD07131
:101AB00004EB61018CB209F1010999F800007E285C
:101AC00003DC99F800002028DDDA00BF002004497B
:101AD00008804FF6FF7003490880BDE8FC8F0000C6
:101AE000180000201A0000200149088070470000FB
:101AF0000008006C0149088070470000FE07006C78
:101B00000248C08802490880704700004001002058
:101B1000FE07006C00B503460A461846FFF7EAFFC9
:101B20001046FFF7E1FF00BD00BFFEE77047000071
:101B300070B5002100230F22C47804B3154C24682B
:101B400004F4E064C4F5E064210AC1F10403CA406E
:101B5000447804FA03F184781440214309010E4CBF
:101B60000678A155047804F01F050124AC400578DF
:101B70006D11AD0005F1E025C5F8004109E00478DC
:101B800004F01F050124AC40044D0678761145F899
:101B9000264070BD0CED00E000E400E080E100E0D4
:101BA00002490143024A1160704700000000FA0533
:101BB0000CED00E0014908627047000000000E4291
:101BC0007047000029B1064A52690243044B5A612A
:101BD00004E0034A52698243014B5A617047000096
:101BE0000010024029B1064AD2690243044BDA616F
:101BF00004E0034AD2698243014BDA617047000076
:101C00000010024029B1064A92690243044B9A61CE
:101C100004E0034A92698243014B9A6170470000D5
:101C20000010024001490860704700004004424231
:101C300010B501460022002300204A11012A02D1DA
:101C4000094C236806E0022A02D1074C236A01E00E
:101C5000054C636A01F01F02012494401C400CB142
:101C6000012000E0002010BD0010024000210B4ABE
:101C700011700A4A203A82F82010012802D0042864
:101C800008D103E00121054A117004E00521034A4F
:101C9000117000E000BF00BF70470000201002403C
:101CA00001490860704700003C0442420249096A49
:101CB0000143014A1162704700100240024909883D
:101CC0008143014A1180704704280040034800887E
:101CD00040F01000014908807047000004280040CF
:101CE000034800884FF6EF710840014908807047AB
:101CF0000428004070B500260024002500F072F88A
:101D000006463448B6FBF0F433480088A0423CD085
:101D100031490C804FF4FA6510E02846FEF7A8FC24
:101D200040B1B4F5B77F02D3A4F5B77404E0681CE2
:101D300085B206E0A4F26D14681C85B2B4F5B67FD6
:101D4000EBD800BF25488580002516E02349888808
:101D5000FEF78EFC30B1012D04D11D2C01D31D3CAA
:101D600009E00CE01E48405DA04203D81C48405DDD
:101D7000241A00E003E0681C85B21C2CE6D200BFE8
:101D8000681C16498871601CC8711248B6FBF0F1D6
:101D900000FB11644FF46160B4FBF0F00F49087070
:101DA0004FF46160B4FBF0F100FB11403C21B0FB4B
:101DB000F1F00A4948704FF46160B4FBF0F100FBA8
:101DC00011403C21B0FBF1F201FB12000349887085
:101DD000002070BD80510100280000202C00002050
:101DE000767A0008002103480188001F008841EA34
:101DF000004070471C28004001460020064A128817
:101E00000A40D0B2044A121F12880A4012B108B127
:101E1000012000E000207047042800400EB501209A
:101E2000FFF7EAFF00285BD0FFF764FF4FF6E07092
:101E300000211022CDE9002102903048828804233D
:101E40000A214FF4C870FFF7BDFD4FF6E070002186
:101E50001022CDE9002102902848827902230A212C
:101E60004FF4DC70FFF7AEFD4FF6E070002110225A
:101E7000CDE9002102902148C27902230A214FF4C2
:101E8000E870FFF79FFD4FF6E07000211022CDE9CA
:101E9000002102901948027802231A214FF4C870D9
:101EA000FFF790FD4FF6E07000211022CDE90021F0
:101EB00002901248427802231A214FF4D470FFF79F
:101EC00081FD4FF6E07000211022CDE90021029043
:101ED0000A48827802231A214FF4E070FFF772FD5E
:101EE0000220FFF789FF10B10220FFF7E7FE05206F
:101EF000FFF7E4FE00F066F90EBD00002C000020A4
:101F000029B1064A12880243044B1A8004E0034AAE
:101F100012888243014B1A8070470000002800405D
:101F20001FB5002400F0D6FB01214FF0C050FFF791
:101F300059FE0120FFF73EFE0420FEF733FAB0F50C
:101F4000036F55D0FEF725FA0120FFF78FFE04E05E
:101F5000601CC4B20A2000F0DFFB4120FFF768FEDE
:101F600008B9FA2CF4DBFA2C16DB4FF6E0700021EE
:101F70003DA21823CDE90032CDE902104FF4B6722C
:101F800040F2FE217420FFF75DFD4FF47A7000F0FF
:101F9000C3FB002004B010BD4FF48070FFF786FE35
:101FA0000120FFF77DFE00F00DF900F015F9012189
:101FB0000846FFF7A5FF00F005F9FFF787FE47F693
:101FC000FF7000F0EFF800F0FDF80020102116235C
:101FD0001E22CDE90010082140F2E57000F070F8F3
:101FE000FFF77EFE4FF403610420FEF7E9F907E0F6
:101FF00000F0F2F801210846FFF782FF00F0E2F856
:1020000000F04EF8FFF776FE4FF6E07000211AA2BE
:102010001023CDE90032CDE9021050220A214FF4FD
:10202000C870FFF70FFD4FF6E070002115A21023D6
:10203000CDE90032CDE9021050221A214FF4C870C8
:10204000FFF700FD4FF6E070002111A21823CDE943
:102050000032CDE902104FF4B67240F2FE21742036
:10206000FFF7F0FC012095E75254435F496E697415
:10207000204552524F520000202020202D20202D9C
:102080002020000020203A20203A202000000000DC
:102090005254435F496E697420444F4E450000001E
:1020A00008B503208DF8000000208DF801008DF8A0
:1020B000020001208DF803006846FFF739FD08BDD6
:1020C0002DE9F05F06460F4690469946DDE90AABDA
:1020D0000024B6F5FA6F03DB40F63300864202DDDA
:1020E0000020BDE8F09F4FF4FA650AE02846FEF7AD
:1020F000BFFA10B12048044401E020480444681CA1
:1021000085B2B542F2DB781EC7B2002510E01C484C
:10211000405D40F2A321484304EBC0143046FEF773
:10212000A7FA18B1012D01D116480444681C85B2E4
:10213000BD42ECDBA8F1010040F2A321484304EBCF
:10214000C014C9EB4910C0EB092004EB0014CAEB22
:102150000A1004EB80045C4401214FF0C050FFF7EB
:1021600041FD0120FFF726FD204600F00DF800F0AC
:1021700029F80020B5E700000085E2018033E10185
:10218000767A00088051010000B50246FFF79EFDF7
:10219000100C03490880091D0A80FFF7A1FD00BD4E
:1021A0001828004000B50246FFF790FDC2F3034037
:1021B00003490880091D0A80FFF792FD00BD000059
:1021C0000828004000BF0348008800F020000028D5
:1021D000F9D0704704280040074800884FF6F7718F
:1021E00008400549088000BF0348008800F0080047
:1021F0000028F9D070470000042800407047000014
:1022000070B504460D462946204600F0D4F900BFBB
:102210004021034800F0C2F90128F9D170BD000047
:10222000003801402DE9F34F85B08A464FF0000B8E
:10223000002440E0C4F1090003F0E1F902460B4636
:10224000CDE9000100201E4902F054FA07468846F5
:10225000504603F0EBF93A464346CDE9020103F05C
:1022600049F8054603F09EF981460A20B9FBF0F1D2
:1022700000FB1199B9F1000F04D1BBF1010F01D09E
:10228000092C07D14FF0010B09F1300081B20598FC
:10229000FFF7B6FF032094FBF0F100FB114040B9BB
:1022A000BBF1010F05D1092C03D020210598FFF7C0
:1022B000A7FF601CC4B20A2CBCDB07B0BDE8F08FDE
:1022C0000000244010B500F001F810BD0CB500204E
:1022D000019000903348006840F480303149086034
:1022E00000BF3048006800F4003000900198401CA6
:1022F0000190009818B90198B0F5A06FF1D1294864
:10230000006800F4003010B10120009001E00020CE
:1023100000900098012843D12348006840F0100045
:10232000214908600846006820F00300086008465C
:10233000006840F0020008601A4840681949486087
:102340000846406848600846406840F4806048603D
:102350000846406820F47C1048600846406840F415
:10236000E81048600846006840F08070086000BFD0
:102370000C48006800F000700028F9D00948406857
:1023800020F00300074948600846406840F002001A
:10239000486000BF0348406800F00C000828F9D1ED
:1023A0000CBD00000010024000200240042808D1AB
:1023B0004FF0E021096941F004014FF0E022116182
:1023C00007E04FF0E021096921F004014FF0E0221D
:1023D000116170477047000010B51348006840F065
:1023E00001001149086008464068104908400E493C
:1023F0004860084600680E4908400B4908600846D6
:10240000006820F4802008600846406820F4FE0040
:1024100048604FF41F008860FFF754FF4FF00060E2
:102420000449086010BD0000001002400000FFF8E1
:10243000FFFFF6FE08ED00E010B52C48007800F034
:102440008000002849D10121294800F086F8E0B138
:102450002648007800F04000B8B1244800787F2872
:102460000EDB4FF6FF70234908802048007840F0CB
:1024700080001E49087000211D4800F07FF804E02C
:102480001A480078401C194908700221184800F0C9
:1024900064F810B31548007800F0400078B1144893
:1024A00000F04FF8134908801048007840F0800091
:1024B0000E49087000210E4800F060F80DE0002180
:1024C0000B4800F064F80948007840F040000749E4
:1024D00008700221064800F051F80121044800F07C
:1024E0002DF80221024800F029F810BD1C00002040
:1024F000000400401E00002010B501210D4800F02E
:1025000023F8012807D101210B48FFF78BFE012199
:10251000084800F013F80421064800F015F80128D7
:1025200007D102210448FFF77DFE0421014800F095
:1025300005F810BD000C004000380140CA4302827B
:1025400070470146888E704702460020138A0B4070
:102550000BB1012000E00020704730B5024600209A
:1025600000230024158A05EA0103958905EA010480
:1025700013B10CB1012000E0002030BD0A4600215B
:10258000018C4FF6FD73194011430184704781841B
:102590007047704770477047704770470246002089
:1025A000B1F5007F00D100BF13880B400BB10120B3
:1025B00000E000207047C1F308028280704700BF2E
:1025C000FEE7490050EAC12018BF04204A0D18BF99
:1025D00040F0010040F2FF72B2EB515F08BF40F0E3
:1025E0000200012808BF052070472DE9F0414F1E69
:1025F00000EBC7010446D1E9000115461E4637F03D
:1026000006020DD02A46334603F060F87F1E04EB25
:10261000C703D3E9002302F0B1FD37F00602F1D180
:10262000022F25D0042F13D0062F18BFBDE8F0814C
:102630002A46334603F04AF8D4E90A2302F09EFD05
:102640002A46334603F042F8D4E9082302F096FD07
:102650002A46334603F03AF8D4E9062302F08EFD09
:102660002A46334603F032F8D4E9042302F086FD0B
:102670002A46334603F02AF8D4E9022302F07EFD0D
:102680002A46334603F022F8D4E90023BDE8F0419E
:1026900002F074BD002213461046014902F02ABE22
:1026A0000000F03F02F06ABD0022134610461146BA
:1026B00002F020BE40F2013200204FF0E04103F072
:1026C000B4BD0000024A0020110703F0AEBD0000B7
:1026D00001FDFFFF10B56FF00400FFF767FE0A4829
:1026E00000680A49B0FBF1F0094908700846007813
:1026F00000EB4001C1EBC0104FF6FF7101EAC000D2
:102700000449088010BD00000000002000127A007B
:1027100014000020160000200146114A12884A4386
:102720004FF0E0235A6100229A611A46126942F082
:1027300001021A6100BF4FF0E022106900F00102AF
:102740001AB100F48032002AF5D04FF0E02212696D
:1027500022F001024FF0E0231A6100229A617047D3
:10276000160000200146114A12784A434FF0E02338
:102770005A6100229A611A46126942F001021A61F6
:1027800000BF4FF0E022106900F001021AB100F41E
:102790008032002AF5D04FF0E022126922F00102C7
:1027A0004FF0E0231A6100229A6170471400002064
:1027B00070B51D480088002834D0FFF713FBC6B25F
:1027C0000A2096FBF0F100FB1160C5B21DB9042090
:1027D0001549887002E00220134988701248008869
:1027E00096FBF0F100FB11600F49C8700025002432
:1027F00013E00E4800EB0410408960B90A48C07825
:10280000A84206D108488078084901EB04114881A4
:1028100005E0681CC5B2601CC4B2102CE9DB00BF27
:1028200000F0D8FF70BD0000360100203600002007
:102830002DE9FF4107464FF6E0700021F7A218236B
:10284000CDE90032CDE902104FF4B67240F2FE211C
:102850007420FFF7F7F8002606E00020F24901EBAC
:1028600006118873701CC6B2102EF6DB052F7DD2C0
:10287000DFE807F0031290FCFB004FF6E070002148
:10288000EAA21823CDE90032CDE902103C226421EE
:102890000846FFF7D7F867E24FF6E0700021E5A29F
:1028A0001823CDE90032CDE902103C22642108460C
:1028B000FFF7C8F800266AE0042464E0DA4800EB79
:1028C0000410408900B95CE0201FD74901EB0010DB
:1028D0004089D0B9084600EB04104189201FD24A34
:1028E00002EB00104181104600EB0410817B201F99
:1028F00002EB001081730020114601EB0411887374
:10290000114601EB041148813AE0201FC64901EB52
:102910000010408901EB04114989884230D1201F01
:10292000C14901EB0010807B01EB0411897B084455
:1029300030BBC2480189201FBB4A02EB001040890E
:102940000844BE490881201F114601EB0010408950
:102950004FF6FF7101EA4001201F02EB0010418198
:102960000121201F02EB0010817300E0FBE1002039
:10297000114601EB04118873114601EB04114881E3
:1029800000BF601CC4B2102C98DB701CC6B2032EB2
:1029900092DBE9E14FF6E0700021A9A21823CDE90E
:1029A0000032CDE902103C2264210846FFF74AF8C4
:1029B00000266FE00C2469E0601E9B4901EB0010CB
:1029C000408900B960E09849E01C01EB00104089A3
:1029D000D8B9601E01EB00104189934AE01C02EB5C
:1029E00000104181601E114601EB0010817BE01C4C
:1029F00002EB001081730021601E02EB0010817356
:102A0000601E02EB001041813DE08749E01C01EBB4
:102A100000104189601E844A02EB00104089814207
:102A200031D11146E01C01EB0010817B601E02EBEE
:102A30000010807B084430BB80480189E01C02EB19
:102A40000010408908447D4908811146E01C01EBD3
:102A5000001040894FF6FF7101EA4001E01C02EBD3
:102A6000001041810121E01C01E0BAE015E002EB19
:102A7000001081730021601E02EB00108173601E44
:102A800002EB0010418100BF601EC4B2002C93DC39
:102A9000701CC6B2032E8DDB66E14FF6E07000219C
:102AA00069A21823CDE90032CDE902103C2264214D
:102AB0000846FEF7C7FF00268FE0012488E00025C6
:102AC00081E004EB8500584901EB0010408900B912
:102AD00077E004EB8500401E534901EB001040896C
:102AE00018BB04EB850001EB0010418904EB850065
:102AF000401E4D4A02EB0010418104EB8500114657
:102B000001EB0010817B04EB8500401E02EB0010FE
:102B10008173002004EB850102EB0111887304EB43
:102B2000850102EB011148814AE004EB8500401E5B
:102B30003D4901EB0010408904EB85013A4A02EB64
:102B40000111498988423BD104EB8500401E1146A2
:102B500001EB0010807B04EB850102EB0111897B06
:102B6000084468BB3548018904EB8500401E02EB30
:102B70000010408908443149088104EB8500401E5B
:102B8000114601EB001040894FF6FF7101EA400148
:102B900004EB8500401E02EB00104181012104EB93
:102BA0008500401E02EB00108173002004EB8501BC
:102BB00002EB0111887304EB850102EB01114881DE
:102BC00000BF681CC5B2042DFFF67BAF601CC4B209
:102BD000042CFFF674AF701CC6B2032EFFF66DAF67
:102BE000C2E04FF6E070002119A21823CDE90032AF
:102BF000CDE902103C2264210846FEF723FF00269F
:102C0000ADE00324A6E000259FE004EB8500401E14
:102C1000054901EB00104089F0B994E06732303487
:102C2000385F47616D6500003600002064696520EB
:102C300020000000757020202000000036010020D8
:102C4000646F776E200000006C65667420000000E1
:102C5000726967687400000004EB8500444901EB69
:102C60000010408928BB04EB8500401E01EB0010DA
:102C7000408904EB85013E4A02EB0111488104EBD7
:102C80008500401E114601EB0010807B04EB85019E
:102C900002EB01118873002104EB8500401E02EB5A
:102CA0000010817304EB8500401E02EB001041818F
:102CB00048E004EB85002E4901EB0010418904EB4C
:102CC0008500401E2A4A02EB00104089814239D11A
:102CD00004EB8500401E114601EB0010807B04EBE5
:102CE000850102EB0111897B084458BB214800890A
:102CF00004EB850102EB0111498908441D49088153
:102D000004EB8500114601EB001040894FF6FF717E
:102D100001EA400004EB850102EB0111488101202A
:102D200004EB850102EB01118873002104EB85009F
:102D3000401E02EB0010817304EB8500401E02EB85
:102D40000010418100BF681CC5B2042DFFF65DAFC5
:102D5000601EC4B2002C3FF756AF701CC6B2032EE3
:102D6000FFF64FAF00E000BF00BFBDE8FF810000ED
:102D700036000020360100200FB42DE9F04FC5B019
:102D80004FF6E0700021B3A21823CDE90032CDE95F
:102D900002104FF4B67240F2FE217420FEF752FE8C
:102DA0009DF86B018DF8EC009DF86C018DF8ED003D
:102DB0009DF86D018DF8EE009DF86E018DF8EF0025
:102DC000002416E13C224EA92CA8FDF764FA3BA88A
:102DD000005D012870D14FF07E5040A941F82400D9
:102DE000601CC0B22E222FA90C906846FDF753FA42
:102DF0000EA82CA90EC901F01DF83C220EA91DA891
:102E0000FDF749FA2E2220A96846FDF744FA0EA8DC
:102E10001DA90EC901F0F8F93C220EA91DA8FDF765
:102E20003AFA00261FE01DA830F81600C8B90220A3
:102E30001DA921F816002A2221A96846FDF72BFAC0
:102E40001DA80FC800F0B4FF8046CDF81081B14630
:102E5000B24602203E903D9000201DA921F81600A8
:102E600003E0701C86B2102EDDDB00BF00265EE0A2
:102E700000203F90002555E01DA830F815000028DF
:102E80004ED13F98B04247D102201DA921F815002C
:102E90002A2221A96846FDF7FEF91DA80FC800F0F7
:102EA00087FF07463846449903F0E6F805D2449771
:102EB000A94602203E9009E095E04146384602F0DE
:102EC000DBFF03D2B846AA4602203D9004201DA98C
:102ED00021F815002A2221A96846FDF7DCF91DA872
:102EE0000FC800F065FF07463846449903F0C4F860
:102EF00004D24497A94604203E9008E04146384653
:102F000002F0BAFF03D2B846AA4604203D90002042
:102F10001DA921F8150007E03F98401C80B23F90A2
:102F2000681C85B2102DA7DB00BF701C86B29DF80F
:102F3000A600B0429CDC1DA93E9821F81900022091
:102F40002A2221A90B906846FDF7A5F91DA80FC8F4
:102F500000F044F9449000201DA921F819003D9883
:102F600021F81A0002202A2221A90B906846FDF7B9
:102F700092F91DA80FC800F031F9804600201DA964
:102F800021F81A00404602F0B1FE4FF06632384B8D
:102F9000CDE9100102F09AFBCDE91401449802F04A
:102FA000A5FE4FF03332334BCDE9100102F08EFB1A
:102FB000CDE91201DDE9142302F0E0F8CDE91801B2
:102FC00040A951F8240002F091FECDE91601DDE997
:102FD000182302F0D3F8CDE91A0102F09DF840A9B8
:102FE00041F8240003E0002040A941F82400601CBF
:102FF00084B2042CFFF6E6AE4FF0000B00203C90AC
:1030000000240EE040A951F82400594603F034F89A
:1030100005D240A850F824B0601CC0B23C90601C9F
:1030200084B2042CEEDB4FF6E070002112A21823CC
:10303000CDE90032CDE902104FF4B67240F2FE2124
:103040007420FEF7FFFC3C9845B0BDE8F00F5DF83A
:1030500014FB000067323034385F4765745F4469A1
:1030600072656374696F6E2053746172740000003E
:103070006666E63F3333D33F67323034385F4765A7
:10308000745F446972656374696F6E20444F4E4586
:10309000000000000FB42DE9FE4F4FF0000A22E0BF
:1030A0000CA8E0B9D3464FEAEA710AEB9171891096
:1030B000481C02F0A4FA00220F4BCDE9000102F0F7
:1030C00005FB04460D46029802F010FE0646224615
:1030D0002B4602F053F8804602F01EF802900AF1E7
:1030E00001001FFA80FABAF1100FD9DB0298BDE88F
:1030F000FE0F5DF814FB0000000004400FB470B533
:1031000088B0002427E0E21704EB9272901000EBE5
:10311000D0725210A0EB42022AB90CA830F8140069
:103120002DF8140015E0E11704EB91710122B2EBC8
:10313000A10F07D1C4F10B000CA931F810002DF834
:10314000140006E0C4F111000CA931F810002DF8AC
:103150001400601C84B2102CD5DB0025BDF80000E3
:10316000BDF86010884209D1BDF86010480002F037
:1031700057FE0646294602F0E5FD0546012425E0F6
:103180003DF81410601E3DF8100081420ADA3DF847
:103190001410480002F044FE0646294602F0D2FD13
:1031A000054611E03DF81410601E3DF81000814204
:1031B00009D13DF8140002F04BFE0646294602F004
:1031C000C1FD054600E003E0601C84B2102CD7DB93
:1031D00000BF284608B070BC5DF814FB0FB42DE9A1
:1031E000F04FC3B02E224FA96846FDF754F80DA842
:1031F0004CA90EC901F008F83C220DA94CA8FDF716
:103200004AF8002042909DF863018DF8E8009DF88F
:1032100064018DF8E9009DF865018DF8EA009DF8DC
:1032200066018DF8EB003C224CA92BA8FDF733F882
:103230005B98032875DA002411E13AA8005D0128A3
:1032400070D14FF07E503DA941F82400601CC0B2FF
:103250002E222EA90C906846FDF71DF80DA82BA96B
:103260000EC900F0E7FD3C220DA91CA8FDF713F8DC
:103270002E221FA96846FDF70EF80DA81CA90EC93D
:1032800000F0C2FF3C220DA91CA8FDF704F80025A0
:103290001FE01CA830F81500C8B902201CA921F8AD
:1032A00015002A2220A96846FCF7F5FF1CA80FC8C4
:1032B00000F07EFD8146CDF80491AA46AB4602207F
:1032C0003C903B9000201CA921F8150003E0681CED
:1032D00085B2102DDDDB00BF00255EE04FF0000859
:1032E000002655E01CA830F8160000284ED1A8454D
:1032F00048D102201CA921F816002A2220A96846DC
:10330000FCF7C9FF1CA80FC800F052FD074638465D
:10331000419902F0B1FE06D24197B24602203C909C
:103320000AE0B8E095E04946384602F0A5FD03D230
:10333000B946B34602203B9004201CA921F8160090
:103340002A2220A96846FCF7A6FF1CA80FC800F097
:103350002FFD07463846419902F08EFE04D2419770
:10336000B24604203C9008E04946384602F084FD0D
:1033700003D2B946B34604203B9000201CA921F893
:10338000160007E008F101001FFA80F8701C86B2F1
:10339000102EA7DB00BF681C85B29DF8A200A842D2
:1033A0009CDC1CA93C9821F81A0003202A2220A9A1
:1033B0000B906846FCF76FFF1CA80FC8FFF70EFFC5
:1033C000419000201CA921F81A003B9821F81B000D
:1033D00003202A2220A90B906846FCF75CFF1CA85A
:1033E0000FC8FFF7FBFE814600201CA921F81B0037
:1033F000484602F07BFC4FF06632A54BCDE9100148
:1034000002F064F9CDE91401419802F06FFC4FF02D
:103410003332A04BCDE9100102F058F9CDE9120189
:10342000DDE9142301F0AAFECDE918013DA951F808
:10343000240002F05BFCCDE91601DDE9182301F060
:103440009DFECDE91A0101F067FE3DA941F8240077
:1034500003E000203DA941F82400601C84B2042C44
:10346000FFF6EBAE0020429000240CE03DA951F89D
:103470002400429902F000FE03D23DA850F8240037
:103480004290601C84B2042CF0DB429843B0BDE84B
:10349000F00F5DF814FB0024E1E03AA8005D01287C
:1034A0007ED14FF07E503DA941F82400601CC0B28F
:1034B0002E222EA90C906846FCF7EDFE0DA82BA934
:1034C0000EC900F0B7FC3C220DA91CA8FCF7E3FED6
:1034D0002E221FA96846FCF7DEFE0DA81CA90EC906
:1034E00000F092FE3C220DA91CA8FCF7D4FE2A2273
:1034F00020A96846FCF7CFFE1CA80FC800F058FCB6
:103500004190002518E01CA830F8150090B9022061
:103510001CA921F815002A2220A96846FCF7BBFE49
:103520001CA80FC800F044FC814600201CA921F80B
:10353000150003E0681C85B2102DE4DB00BF0025F8
:1035400052E04FF00008002649E01CA830F81600B1
:1035500038BBA8453DD102201CA921F816002A221B
:1035600020A96846FCF797FE1CA80FC800F020FCB5
:1035700007463846419902F07FFD01D2419705E0A8
:103580004946384602F078FC00D2B94604201CA90E
:1035900021F816002A2220A96846FCF77CFE01E0EB
:1035A00057E01AE01CA80FC800F002FC0746384696
:1035B000419902F061FD01D2419705E04946384644
:1035C00002F05AFC00D2B94600201CA921F81600CE
:1035D00007E008F101001FFA80F8701C86B2102E77
:1035E000B3DB00BF681C85B29DF8A200A842A8DC2E
:1035F000484602F07BFB4FF06632254BCDE91001C7
:1036000002F064F8CDE91401419802F06FFB4FF02D
:103610003332204BCDE9100102F058F8CDE9120108
:10362000DDE9142301F0AAFDCDE918013DA951F807
:10363000240002F05BFBCDE91601DDE9182301F05F
:103640009DFDCDE91A0101F067FD3DA941F8240077
:1036500003E000203DA941F82400601C84B2042C42
:10366000FFF61BAF0020429000240CE03DA951F86A
:103670002400429902F000FD03D23DA850F8240036
:103680004290601C84B2042CF0DB4298FEE60000FD
:103690006666E63F3333D33F7FB5002437E0E1175A
:1036A00004EB91718910A4EB81017622514308311A
:1036B000404A02EB04125180E11704EB917189102A
:1036C000A4EB81017622514376313A4A02EB04128F
:1036D0009180E11704EB9171891076225143A83152
:1036E000344A02EB0412D180E11704EB9171891086
:1036F0007622514301F58B712E4A02EB041211819F
:1037000000202C4901EB04114881601CC4B2102C2C
:10371000C5DB48F251404FF42073A0224FF4F07102
:1037200000900020FCF7DCFF002416E04CF67860E7
:10373000204D05EB041500902B891E4D05EB04155B
:10374000EA881C4D05EB0415A9881A4D05EB0415F4
:103750006888FCF7C5FF601CC4B2102CE6DB00F0E3
:1037600025FEFFF725F800F021FEFFF721F80020E5
:10377000114908814FF6E070002110A21823CDE90D
:103780000032CDE902103C2264210846FEF75AF9C6
:103790004FF6E07000210BA21823CDE90032CDE9ED
:1037A00002104FF4B67240F2FE217420FEF74AF97F
:1037B0007FBD00003600002036010020444F4E45FA
:1037C00020000000323034385F496E697420444F65
:1037D0004E45000000B587B000200690DFE2FE49AC
:1037E000069801EB00104089402875D00DDC0828B0
:1037F00073D005DCE8B1022838D004286ED170E01F
:1038000010286CD02028F9D111E1B0F5806F67D075
:1038100008DC80287ED0B0F5807F7CD0B0F5007FBA
:10382000ECD1E0E1B0F5006F76D0B0F5805FE5D186
:103830007CE24CF67860E8490090069801EB0010B5
:1038400000890590069801EB0010C0880490069846
:1038500001EB001080880390069801EB001040886F
:10386000029003A90EC9FCF73BFF93E24FF29C7054
:10387000D9490090069801EB001000890590069840
:1038800001EB0010C0880490069801EB00108088BE
:103890000390069801EB00104088029003A90EC91E
:1038A000FCF71EFF4FF29C700021CDE90010CA49C1
:1038B000069801EB0010C0881F3080B20590069872
:1038C00001EB001040882B3080B2012302220490CB
:1038D000059900F039FE5DE2DFE03CE059E270E07E
:1038E000B8E14EF6F960BC490090069801EB001073
:1038F00000890590069801EB0010C0880490069896
:1039000001EB001080880390069801EB00104088BE
:10391000029002E0F7E02CE1D2E103A90EC9FCF726
:10392000DFFE4EF6F9600021CDE90010AA490698A5
:1039300001EB0010C0881F3080B20590069801EBA3
:10394000001040882B3080B2012304220490059996
:1039500000F0FAFD1EE24DF6D0509F490090069807
:1039600001EB001000890590069801EB0010C0885B
:103970000490069801EB001080880390069801EBF4
:1039800000104088029003A90EC9FCF7A9FE4DF66D
:10399000D0500021CDE900108F49069801EB0010AE
:1039A000C0881F3080B20590069801EB0010408857
:1039B0002B3080B2012308220490059900F0C4FD49
:1039C000E8E14FF22C5084490090069801EB00107A
:1039D00000890590069801EB0010C08804900698B5
:1039E00001EB001080880390069801EB00104088DE
:1039F000029003A90EC9FCF773FE4FF22C50002170
:103A0000CDE900107449069801EB0010C0881F3002
:103A100080B20590069801EB001040881F3080B2FC
:103A2000022310220490059900F08EFDB2E14FF6BA
:103A3000EA3069490090069801EB00100089059072
:103A4000069801EB0010C0880490069801EB001066
:103A500080880390069801EB00104088029003A92B
:103A60000EC9FCF73DFE4FF6EA300021CDE900100B
:103A70005949069801EB0010C0881F3080B20590AC
:103A8000069801EB001040881F3080B202232022EC
:103A90000490059900F058FD7CE14FF478404E49C0
:103AA0000090069801EB001000890590069801EB44
:103AB0000010C0880490069801EB001080880390E5
:103AC000069801EB00104088029003A90EC9FCF78C
:103AD00007FE4FF478400021CDE900103E490698DA
:103AE00001EB0010C0881F3080B20590069801EBF2
:103AF000001040881F3080B20223402204900599B4
:103B000000F022FD46E14EF6F06033490090069841
:103B100001EB001000890590069801EB0010C088A9
:103B20000490069801EB001080880390069801EB42
:103B300000104088029003A90EC9FCF7D1FD4EF693
:103B4000F0600021CDE900102349069801EB001038
:103B5000C0881F3080B20590069801EB00104088A5
:103B6000133080B2032380220490059900F0ECFC0E
:103B700010E14FF6A06018490090069801EB001084
:103B800000890590069801EB0010C0880490069803
:103B900001EB001080880390069801EB001040882C
:103BA000029003A90EC9FCF79BFD4FF6A06000210F
:103BB000CDE900100849069801EB0010C0881F30BD
:103BC00080B20590069801EB00104088133080B257
:103BD00003234FF4807201E0360000200490059921
:103BE00000F0B2FCD6E04FF60460704900900698F1
:103BF00001EB001000890590069801EB0010C088C9
:103C00000490069801EB001080880390069801EB61
:103C100000104088029003A90EC9FCF761FD4FF621
:103C200004600021CDE900106049069801EB001006
:103C3000C0881F3080B20590069801EB00104088C4
:103C4000133080B203234FF400720490059900F002
:103C50007BFC9FE04FF6C45054490090069801EB5E
:103C6000001000890590069801EB0010C0880490B0
:103C7000069801EB001080880390069801EB001075
:103C80004088029003A90EC9FCF72AFD4FF6C450E4
:103C90000021CDE900104549069801EB0010C088CD
:103CA0001F3080B20590069801EB00104088C01DBF
:103CB00080B204231A020490059900F045FC69E0E3
:103CC0004EF6615039490090069801EB00100089CA
:103CD0000590069801EB0010C0880490069801EB4F
:103CE000001080880390069801EB00104088029035
:103CF00003A90EC9FCF7F4FC4EF661500021CDE992
:103D000000102A49069801EB0010C0881F3080B2CD
:103D10000590069801EB00104088C01D80B2042376
:103D20005A020490059900F00FFC33E000201F496F
:103D30000090069801EB001000890590069801EBB1
:103D40000010C0880490069801EB00108088039052
:103D5000069801EB00104088029003A90EC9FCF7F9
:103D6000BFFC0020009011490190069801EB001063
:103D7000C0881F3080B20590069801EB0010408883
:103D8000C01D80B204239A020490059900F0DCFB68
:103D900000E000BF00BF0698401CC0B20690069825
:103DA0001028FFF61CAD07B000BD00003600002053
:103DB0000FB42DE9F0478CB02A2218A96846FCF709
:103DC0006AFA14A80FC8FFF799F904462A2218A91D
:103DD0006846FCF760FA14A80FC8FFF75BF9814644
:103DE000484601F083FF0746104A114B01F06EFC74
:103DF000054601F091F981464FF08041204602F0DE
:103E00006FF80446BDF8880002F022F80546214606
:103E1000484601F097FF0646294601F093FF824687
:103E200050460CB0BDE8F0075DF814FB9A999999DB
:103E30009999B93F0FB42DE9F0410746DDF8588054
:103E4000002604E000210FA88155701CC6B2102E78
:103E5000F8DBB8F1010F09D0B8F1020F5ED0B8F16C
:103E6000030F7DD0B8F1040F7BD13EE1002652E074
:103E700004244CE007A830F8140000B945E0201FE6
:103E800007A931F8100090B907A830F81410201FC6
:103E900007AA22F810100FA8025D201F0FA90A54CC
:103EA00000210FA8015507A820F814102CE0201FAE
:103EB00007A931F8100031F81410884224D1201FCE
:103EC0000FA9095C0FA8005D0844E8B9BDF85410BB
:103ED000201F07AA32F81000084480B2ADF8540041
:103EE000201F07A931F810004FF6FF7101EA4001C9
:103EF000201F22F8101001220FA90A5400210FA838
:103F0000015507A820F8141000BF601CC4B2102C83
:103F1000B0DB701CC6B2032EAADB6BE100265DE0AD
:103F20000C2457E0601E07A931F8100000B94FE0DB
:103F300007A9E01C31F81000B8B9601E31F8101064
:103F400007AAE01C22F81010601E0FA90A5C0FA837
:103F5000E11C42540022601E0FA90A5407A901E087
:103F60003FE046E121F8102031E007A9E01C31F8DC
:103F70001010601E07AA32F81000814227D10FA846
:103F8000E11C425C601E0FA9085C1044F8B9BDF842
:103F9000541007AAE01C32F81000084480B2ADF8B3
:103FA000540007A9E01C31F810004FF6FF7101EA38
:103FB0004001E01C22F8101001220FA8E11C42541D
:103FC0000022601E0FA90A5407A921F8102000BF83
:103FD000601EC4B2002CA5DC701CC6B2032E9FDB91
:103FE00008E100267DE0012477E0002571E004EB84
:103FF000850007A931F8100000B968E004EB8500DE
:10400000401E07A931F81000E8B904EB850031F82B
:10401000101004EB8500401E07AA22F8101004EBD4
:1040200085010FA8425C04EB8500401E0FA90A54CD
:10403000002104EB85020FA8815404EB850007AA38
:1040400022F8101042E004EB8500401E07A931F869
:10405000100004EB850107AA32F81110884235D10F
:1040600004EB8500401E0FA9095C04EB85020FA834
:10407000805C084450BBBDF8541004EB8500401E22
:1040800007AA32F81000084480B2ADF8540004EBDF
:104090008500401E07A931F810004FF6FF7101EAB4
:1040A000400104EB8500401E22F81010012204EBB1
:1040B0008500401E0FA90A54002104EB85020FA8B9
:1040C000815404EB850007AA22F8101000BF681C79
:1040D000C5B2042D8BDB601CC4B2042C85DB701CC4
:1040E000C6B2032EFFF67FAF84E000267DE00324F6
:1040F00077E0002571E004EB8500401E07A931F848
:10410000100000B967E004EB850007A931F8100042
:10411000F8B904EB8500401E31F8100004EB85016E
:1041200007AA22F8110004EB8500401E0FA9095CC4
:1041300004EB85020FA88154002204EB8500401E89
:104140000FA90A5404EB8500401E07A921F810208E
:1041500040E004EB850007A931F8101004EB85005E
:10416000401E07AA32F81000814233D104EB8500CB
:10417000401E0FA9095C04EB85020FA8805C08446F
:1041800040BBBDF8540004EB850107AA32F81110BA
:10419000084480B2ADF8540004EB850007A931F85B
:1041A00010004FF6FF7101EA400004EB850122F890
:1041B0001100012104EB85020FA88154002204EBB9
:1041C0008500401E0FA90A5404EB8500401E07A974
:1041D00021F8102000BF681CC5B2042D8BDB601EC7
:1041E000C4B2002C85DC701CC6B2032EFFF67FAF74
:1041F00000E000BF00BF3A2207A93846FCF706F8E6
:10420000BDE8F0015DF814FB0FB470B50646002060
:104210008DF84700042417E005A830F8140000B911
:1042200010E0201F05A931F8100030B1201F31F82F
:10423000100031F81410884203D101208DF8470096
:1042400004E000BF601CC4B2102CE5DB00BF0020FE
:104250008DF848000C241AE0601E05A931F8100002
:1042600000B912E005A9E01C31F8100040B1E01CD3
:1042700031F81010601E05AA32F81000814203D1F7
:1042800001208DF8480004E000BF601EC4B2012C7C
:10429000E2DA00BF00208DF84900012427E0002564
:1042A00020E004EB850005A931F8100000B917E003
:1042B00004EB8500401E05A931F8100058B104EB4D
:1042C0008500401E31F8100004EB850105AA32F884
:1042D0001110884203D101208DF8490004E000BF8D
:1042E000681CC5B2042DDCDB00BF601CC4B2042C0A
:1042F000D5DB00208DF84A0003242BE0002524E0C4
:10430000601E00EB850005A931F8100000B91AE025
:10431000601E00EB8500401C05A931F8100068B153
:10432000601E00EB8500401C31F81010601E00EB91
:10433000850005AA32F81000814203D101208DF8D2
:104340004A0004E000BF681CC5B2042DD8DB00BFE2
:10435000601EC4B2012CD1DA00208DF84600ADF801
:104360004400002417E005A830F8140028B99DF88F
:104370004600401CC0B28DF8460005A830F8140075
:10438000BDF84410884204DD05A830F81400ADF8EB
:104390004400601CC4B2102CE5DB3A2205A930466B
:1043A000FBF734FF70BC5DF814FB000010B5002271
:1043B000634B1A7104201BE0624A02EB001252891F
:1043C00002B913E0021F5F4B03EB0212528942B1A4
:1043D000021F03EB0212528903EB00135B899A421E
:1043E00003D10122564B1A7104E000BF421CD0B227
:1043F0001028E1DB00BF0022514B5A710C201EE057
:10440000421E504B03EB0212528902B915E04D4B8C
:10441000C21C03EB0212528952B1C21C03EB0212FE
:104420005389421E474C04EB02125289934203D136
:104430000122434B5A7104E000BF421ED0B2012852
:10444000DEDA00BF00223E4B9A7101202BE00021F2
:1044500024E000EB81023B4B03EB0212528902B9CC
:104460001AE000EB8102521E364B03EB0212528916
:104470006AB100EB8102521E03EB0212528900EB7B
:104480008103304C04EB03135B899A4203D1012270
:104490002B4B9A7104E000BF4A1CD1B20429D8DB2F
:1044A00000BF421CD0B20428D1DB0022244BDA71B9
:1044B00003202FE0002128E0421E02EB8102214B65
:1044C00003EB0212528902B91DE0421E02EB810287
:1044D000521C1C4B03EB021252897AB1421E02EBB2
:1044E0008102521C03EB02125389421E02EB81022D
:1044F000144C04EB02125289934203D10122104B57
:10450000DA7104E000BF4A1CD1B20429D4DB00BF39
:10451000421ED0B20128CDDA0022094B1A800020B9
:104520000BE0084A02EB0012528922B9044A1288B1
:10453000521C034B1A80421CD0B21028F1DB10BD74
:1045400036010020360000202DE9F04F86B00546E8
:104550000C4691461F46DDE90FAB029501943D489C
:10456000A0F800A03C48A0F800B0002666E0B81B08
:10457000401EC1B20A20FDF767F9B9FBF0F00A212D
:10458000B0FBF1F201FB120004901821029801FB2C
:10459000060085B24FF000084BE00498103000EBA5
:1045A000C0002E4901EB800010F8080003900020A5
:1045B000059036E0039800F0800050B1601C83B293
:1045C000681C81B222462846CDF800A0FCF788F886
:1045D00009E0601C83B2681C81B222462846CDF8EF
:1045E00000B0FCF77DF8A01C84B203984006000ED2
:1045F00003901B484088A04202DC06B0BDE8F08F63
:104600000198201A302808DB019CA81C85B21448A8
:104610000088A84200DCF0E706E00598401CC0B224
:10462000059005980828C5DB00BF08F1010000F0DF
:10463000FF08B8F1240FB0DB701CC6B2BE4296DB97
:104640000020044908804FF6FF700349088000BF2E
:10465000D3E70000180000201A0000201A6D00089F
:1046600040010020AAB0FEF735F86420FEF754F8A8
:104670004FF4A060FDF794FAFCF778F8FDF750FCD2
:10468000FFF70AF830E0002408E0184800EB0410B7
:1046900040891BA921F81400601CC4B2102CF4DB63
:1046A00013480089ADF8A4002E221EA96846FBF726
:1046B000F2FD0CA81BA90EC9FFF7A6FD3C220CA910
:1046C0001BA8FBF7E8FD2A221FA96846FBF7E3FDBC
:1046D0001BA80FC8FEF750FBC5B22846FEF7A8F886
:1046E000FFF764FEFEF764F8CDE700003600002017
:1046F000360100202DE9F04D1D460C4698B01746B6
:1047000021F0004123F00043002814BF4FF0010CBA
:104710004FF0000C0CEB440CFE4A0CEB02064FEA87
:10472000620C66452BD33E0018BF012606EB4506FA
:104730001644F94A964222D3F84A53EA070C02D0AB
:10474000944205D148B918B000201146BDE8F08D5B
:10475000002808BF4FF0000C01D04FF0010C0CEB0B
:10476000440212F5001F0AD8002F14BF4FF0010CAD
:104770004FF0000C0CEB450212F5001F07D918B0E2
:104780003A462B462146BDE8F04DFDF78BBF00228F
:10479000DFF88CA3002CB8BF534526DADFF884C3BA
:1047A0006345A8BF022220DADFF870C39C451CDCF9
:1047B000DFF874C30CEB235CBCF1140F08DDCCF103
:1047C000340627FA06FC0CFA06F6BE420DD108E0C4
:1047D0005FB9CCF1140623FA06FC0CFA06F69E42E9
:1047E00003D10CF00102C2F1020251EA000C19D10E
:1047F000002D17DA002C18BF022A01D0012A07D099
:104800000220FBF782FD18B0BDE8F04DFDF742BF76
:104810000220FBF77AFDFDF73DFF18B081F0004163
:10482000BDE8F08DB7F1000C6CD1534525D104F1F2
:10483000804212F5801201BF00280020B74918B04D
:1048400008BFBDE8F08DB548884207DC002DA1BF48
:104850006046294618B0BDE8F08D07E0281E05DA4D
:1048600080F0004118B06046BDE8F08DAF49794452
:10487000D1E9000118B0BDE8F08DDFF8A0C26345B2
:1048800025D1002D1FDA19B1514512D1D8B909E04F
:10489000002840F0EC82A24A214618B062F31E01C3
:1048A000BDE8F08D0020214618B060F31E01BDE880
:1048B000F08D08DA18B02346BDE8F04D024600201E
:1048C000614600F017BD18B02146BDE8F08D514596
:1048D00018DAB5F1804F0DD0A5F1005CBCF1FF5C9A
:1048E00010D1B4F1000C0DDB18B06146BDE8F04DFD
:1048F00000F0ECBB234618B00246BDE8F04D194667
:1049000000F0E4BE060024F0004C3BD1D9B1514583
:1049100033D1002C06DD002DA1BF0020514618B078
:10492000BDE8F08D002C01DD002D1BDB002C13DA1F
:10493000002D11DB012A4FF0000014BF78497C499B
:1049400018B0BDE8F08D022A18BF002C0AD0012A49
:1049500008D1002C06DA0AE0002CB8BF002D11DACD
:10496000012A04D0002018B00146BDE8F08D18B02F
:1049700000204FF00041BDE8F08DA1F14050B0F1B2
:104980007F601AD0012000EBE47050EA020421D0CD
:10499000624C521E4FF0000B104304BF4FF0000B4F
:1049A000644C654883427CDD644A654893421FDD60
:1049B000884217DB002D25DB37E0002C00DA4AB1F6
:1049C000022A0CBF01204FF0FF3018B0BDE8F04DB7
:1049D00000F015BE0120FBF798FC18B0BDE8F04DC3
:1049E000FDF762BE4D4A8A4202DC002D0ADC1CE063
:1049F000814202DA002D18DA04E0484B994220DDAA
:104A0000002D12DD0220FBF780FCFDF753FE05466A
:104A10000E46002253465846214600F057FE18B075
:104A200066F31E012846BDE8F08D0220FBF76DFC01
:104A3000FDF748FE0A46214618B062F31E01BDE8A4
:104A4000F08D00223046614601F066F880460E4641
:104A50006FF0010201F0E9FB4FF05532394B00F0E5
:104A600069FF4246334600F031FE0022364B00F02B
:104A700061FF82464246334604911046194600F0D3
:104A800025FE5246049B00F021FE8A4600904FF01E
:104A9000C0422E4B4046314600F018FE2C4A2B4BAC
:104AA00000E027E0CDE906015146009800F00EFE37
:104AB00082460191274A284B4046314600F006FEC7
:104AC0005246019B01F028F882460B4602460591AA
:104AD000DDE9060100F052FBDDE9062300268846E9
:104AE000304601F019F85246059B00F023FF0246BC
:104AF00000F07EB90020B1F5801F07DA352230467C
:104B0000614601F092FB06466FF0340000EB215045
:104B100024E00000FFFF1F00FFFF0F000000F03F38
:104B20000000F07F0000404301FCFFFF9E320000C8
:104B30000000F0FF0000F0BF0000E0410000F04383
:104B4000FFFFEF3F5555D53F0000E03F4715F73FCA
:104B5000FE822B6544DF5DF80BAE543EA0F2FF30C1
:104B60000190C1F3130040F07F6141F04051029188
:104B7000FE498842D8BF002004DDFD498142C8BFFC
:104B8000012001DD0D9008E000200D900198401CEF
:104B900001900298A0F5801002900299F54878449F
:104BA0000B910D9900EBC100D0E900230F93304623
:104BB0000A920B9900F0B0FFCDE90601DDE90A2168
:104BC00030460F9B00F0DAFA02460B460020EA4915
:104BD00000F090FB059102460B460090DDE90601CE
:104BE00000F074FD1490E5488A464FF000087844C0
:104BF0000299006812904FF0005040EA61010D9850
:104C00000F9B01EB804000F5002109910A9A129850
:104C100000F082FF32460B9B00F08CFE424653466A
:104C200000F054FD0646029140465146099B129AF7
:104C300000F04CFDDDE9062300F07CFE3246029BCD
:104C400000F06AFF059B009A00F040FD0091149A65
:104C5000049053461046194600F038FD06460246B9
:104C6000C7480B46029106217844FDF7BEFCCDE90A
:104C70000510029B32461046194600F027FDDDE97B
:104C8000053200F023FD059106465346404619467D
:104C9000149A00F073FA009B049A00F017FD324654
:104CA000059B00F06BFACDE90510424653461046CD
:104CB000194600F00BFD0022B24B02910A9000F061
:104CC0005DFADDE9053200F059FA0E464246AD4B79
:104CD000404600F021FF029B0A9A00F01DFFDDE92B
:104CE000053200F027FE424602910A9033461046F4
:104CF000514600F0EBFCCDE906015346149A0299A7
:104D00000A9800F0E3FC8A46029033464246009936
:104D1000049800F0DBFC5346029A00F02FFA82461A
:104D20000B4602460591DDE9060100F027FADDE9B0
:104D3000062300208846064600F0EEFE5246059BFC
:104D400000F0F8FD824609914FF060428E4B3046EC
:104D5000414600F0BBFC049006918C4A8A4B5046B9
:104D6000099900F0B3FC82460291894A894B30468A
:104D7000414600F0ABFC5246029B00F0FFF9864B27
:104D80007B440D9A03EBC203D3E9002300F0F6F94C
:104D90000E900791019800F032FC0591DDE90613B1
:104DA00082460E9A049800F0E9F97C4A7A440D9BF9
:104DB00002EBC303D3E900230093029200F0DEF973
:104DC0005246059B00F0DAF90026884652463046E6
:104DD000059B00F0A1FE009B029A00F09DFE069B41
:104DE000049A00F099FE079B0E9A00F0A3FD02467C
:104DF00000200B4602903846294600F067FC8246A8
:104E000001912B4638461946029A00F085FE32463B
:104E1000434600F05BFC5246019B00F0AFF90746A9
:104E20008A46324643462946029800F04FFC054622
:104E30000E463A46534600F0A1F9594A8846914237
:104E400021DBA8EB020353EA000210D12A463346C5
:104E500000F062FECDE90401524A534B38465146F8
:104E600000F08CF9DDE9042300F02EFD21D20220B0
:104E7000FBF74BFAFDF71EFC0A46214618B062F319
:104E80001E01BDE8F08D494B28F000429A4210D334
:104E9000474A08EB020353EA00027FF4C6AD2A46F4
:104EA000334600F039FE3A46534600F00DFD7FF6DA
:104EB000BCAD0022019228F000403E493E4A01EB81
:104EC0002051824223DA481C4FF4801121FA00F06D
:104ED00040443A4AC0F30A517A44394BA1F2FF31B7
:104EE000CB4020EA0303C0F3130040F48010C1F16B
:104EF0001401C84012680190B8F1000FBCBF4042D5
:104F000001902846314600F007FE05460E462A4627
:104F100033463846514600F031F94FF0000842461A
:104F2000284B4046059100F0D1FBCDE90601264A09
:104F3000264B4046059900F0C9FB009102902A4695
:104F400033464046059900F0E7FD3A46534600F0E7
:104F5000F1FC1F4A1F4B00F0B9FB009B029A00F0C6
:104F60000DF90746884602460B4635E08E98030049
:104F70007AB60B00E62E00000000F03F1E2F000066
:104F80004C2E00000000084009C7EE3FFD033ADC4C
:104F9000F5015B14E02F3EBE242D0000E82C00003C
:104FA00000009040FE822B654715973C00CC904056
:104FB00000346F3F01FCFFFF0000E03F342C000095
:104FC000FFFF0F00432EE63F396CA80C615C20BE4A
:104FD000EF39FAFE422EE63FDDE9060100F0CEF899
:104FE000DDE9062305460E4600F096FD3A464346A7
:104FF00000F0A0FC0F462A463346009010461946A2
:1050000000F064FB824602462E4888460B46052186
:105010007844FDF7EAFA5246434600F057FB2A4629
:10502000334600F087FC80468A463B462846314698
:10503000009A00F04BFB3B46009A00F09FF8069167
:10504000009000224FF080434046514600F064FD3E
:105050000F460C90424653462846314600F036FB38
:105060003B460C9A00F046F9069B009A00F054FD6E
:105070002A46334600F050FD0022134B00F05AFC44
:10508000054601980E4601EB00510815002810DC7A
:1050900028463146019A01F0C8F8FDF792FA042833
:1050A00008BFFDF70FFB28463146019A01F0BDF815
:1050B00005460B4618B02A4658462146BDE8F04D35
:1050C00000F004BBD42A00000000F03F2DE9F041BD
:1050D00006460F4600F03AFC041E0D4618BF01209C
:1050E000284320F00040C0F17F6000F1E040C00F95
:1050F0000ED0301C18BF0120384320F00040C0F112
:105100007F6000F1E040C00F04BF0120FBF7FDF815
:1051100020462946BDE8F08121F00042A2F160520C
:10512000B2F5801F01F0004328BFD2F17F6C0BD98C
:105130005FEA001C43EAC20242EB507018BF70479E
:1051400028BF20F001007047B2F5801FBCBF184691
:1051500070474FEA410C1CF5001F02D2084600F0D0
:1051600086BF70B500F05CFB00000089FFF7F6BF5A
:105170004FF00040A0F580007047000010B591EAA4
:10518000030F48BF83F0004300F1CE84841A71EB13
:10519000030C05D2121943EB0C03001B61EB0C014D
:1051A000DFF824E14FEA1154A4EB135C1EEA430F2D
:1051B00018BF9EEA445F73D023EA0E03DCF1200E91
:1051C00021EA045143F4801332D322FA0CFE10EB8F
:1051D0000E0023FA0CFE41EB0E01CCF1200E03FA77
:1051E0000EFE10EB0E0051F10001B1F5801FCCF165
:1051F000200E32D201EB045112FA0EF2BDE810403B
:1052000058BF7047401C38BF5FEA420218BF704762
:10521000002814BF20F0010041F100014FEA4103D2
:1052200013F5001F38BF7047A1F1C04100F046BB25
:10523000012A43EB0302ACF1200CDCF11F0E32BF5C
:105240004FF0000E23FA0CF310EB030041EB045176
:10525000B4EB115FD0D0A1EB045101F580114908E6
:105260005FEA300001EB04510ED350F1000038BF6B
:1052700012FA0EFE08D1BDE81040C9E7401C38BF45
:105280005FEA4202CAD1C3E7BDE810404FEA4103DA
:1052900013F5001F38BF7047A1F1C04100F00EBBED
:1052A0009EEA445F08D011EA5E0FBDE8104004BFDB
:1052B00001F0004100207047BDE8104070B500F0DB
:1052C000AFFA00BF64FBBE3E0000E0FF02494FF0B2
:1052D000000000F078BF00BF0000F87F491058BF01
:1052E000C1F140415B1058BFC3F140438B42EFF323
:1052F000008070472DE9C04130B4DFF8A0C23CEA1D
:10530000111418BF3CEA131400F0EC8081EA030585
:105310001CEA111444EAD57418BF1CEA131500F0F6
:10532000C780A4EB05044FF0004545EAC12145EADA
:10533000C32341EA505143EA525304F17F74994226
:1053400004F500344FEAC0204FEAC22208BF904261
:1053500000F09C804FEA13650FF24016765D4FEA2D
:10536000134506FB05F7C7F1807706FB07F74FEA01
:10537000D737A7FB03687642C8F58038A7FB06CE6F
:1053800038BFA8F1010807FB08E64FF0000EA6FBA6
:10539000028CE6FB03CEDCF1000CCEF1004E38BFF0
:1053A000AEF1010EA6FB0C584FF000074FF00005C0
:1053B000E6FB0E87A1FB08C6A0FB07CE16EB0E0688
:1053C00045F10005E1FB076515F1E04E7EBFA4F550
:1053D00080345FEA46066D4116F1800745F100050D
:1053E0004FEA17274FEA066647EA0567A6F1DE4649
:1053F000B6F1805F4FEA15251FD9384624F0010C1D
:1054000005EBC471BCF1FE6F01EB0C1102D8F0BCCE
:10541000BDE8008124425CBF01F5801E9EEAC47F86
:1054200002D4F0BCBDE80081244238D4F0BCA1F124
:10543000C041BDE8004100F041BA4FEAD22242EA41
:1054400043524FEAD323A7FB02864FEAD02040EA1B
:10545000415007FB03661EEA0E0F4FEAD12105FB00
:10546000026658BFA6EB0056B6EB00564FEA520E46
:105470004EEAC37E18EB0E0E56EB530EBDD518EB5D
:1054800002085E417F1C55F10005B6E74FF4801518
:105490004FF000074FF000064FF00008ADE7F0BCFA
:1054A0004FF0000001F1C04101F00041BDE8008172
:1054B00011EA0C1F0CEA131500D00CE013EA0C1FC4
:1054C00000F025804FF00000F0BC81EA030101F0FC
:1054D0000041BDE80081F0BCBDE8004181EA030164
:1054E00000F0ECB9F0BCBDE8004170B500F098F9EF
:1054F000097EFC3E00F007B881EA03014FF000008E
:1055000001F00041704781EA030100F0D7B9F0BC17
:10551000BDE800414FF0000021497047FFFDFBF955
:10552000F7F5F4F2F0EEEDEBE9E8E6E4E3E1E0DED6
:10553000DDDBDAD8D7D5D4D3D1D0CFCDCCCBCAC848
:10554000C7C6C5C4C2C1C0BFBEBDBCBBBAB9B8B76F
:10555000B6B5B4B3B2B1B0AFAEADACABAAA9A8A862
:10556000A7A6A5A4A3A3A2A1A09F9F9E9D9C9C9B30
:105570009A999998979796959594939392919190DB
:105580008F8F8E8E8D8C8C8B8B8A8989888887876C
:105590008685858484838382828181800000FF07E1
:1055A0000000F87F4FEA1153A3F58063D3F11E0387
:1055B000A8BFD3F1200C08DB4FF0004242EAC12221
:1055C00052EA505232FA03F0704709420BD4102BC2
:1055D000C4BF0020704703F5787CBCF1FF3F05D0C5
:1055E0004FF0FF3070474FF00000704770B500F08B
:1055F00017F900BF4992248000207047F0E710F0AF
:10560000004248BF4042B0FA80F310FA03F10AD0DA
:10561000C3F11D0303F580634FEA415002EB0352CF
:1056200002EBD12170474FF000007047B0FA80F3D1
:1056300010FA03F10AD0C3F11D0303F580634FEAAA
:1056400041504FEA035202EBD12170474FF0000066
:105650007047000051EA030C17D41CF5801F58BF97
:10566000BCF5801F00F10680994218BF704708BF43
:105670009042704707D711F5801F58BF13F5801F60
:1056800019D499427047894270471CF5801F08D58C
:10569000BCF5801FF7D58B4218BF704708BF824208
:1056A00070474FF4001C1CEB410F38BF1CEB430F3D
:1056B00001D28B42704770B500F0B2F892244900D5
:1056C0004FF000514FF08053FFF708BEDFF848C19C
:1056D00070B51CEA111E1EBF1CEA13159EEA0C0FC2
:1056E00095EA0C0F00F06F8081EA030423EA4C1363
:1056F0004EEAD47E21EA4C1141F4801143F4801328
:10570000AE44A1FB024CA0FB0365AEF17F7E3619CF
:1057100055EB0C05A1FB034C4CF10003A0FB021C54
:1057200016EB0C06654153F10003094218BF46F021
:10573000010613F4007F0BD14FEA03314FEA053025
:10574000340341EA155140EA16506FF003020AE0B3
:105750004FEAC3214FEAC520F40241EA555140EA1D
:1057600056506FF0020202EB2E4201EB025585EA21
:10577000CE710AD05FEA440C18BF24F0004450F107
:10578000000041F1000120EAD47040F2FE7C624545
:1057900000D270BDA84214BF4FF080444FF0404487
:1057A000002E08BF0024BEF1806FA8BFA1F1C04148
:1057B000BDE8704080F282804FF0000001F1C041EE
:1057C00001F0004170479EEA0C0F0CEA131518BF58
:1057D00095EA0C0F06D04FF0000081EA030E0EF0A0
:1057E000004170BD00F01CF88900013E00F007B8D0
:1057F00000F009B84FEA430C5FEA5C5C08D081EA2C
:10580000030100F05BB84FEA410C5FEA5C5CF6D143
:105810004FF00000014970470000FF070000F87FCB
:105820000EF1020E2EF0030E5EF8046B364205D424
:10583000012A43EB030515F5001F12D8012841EB9F
:10584000010C1CF5001F0CD80ED14FEAD17C15F5C8
:10585000001F0CEB4C0C0CF1020C08BF4CEBD37C82
:1058600004E04FF0080C01E04FEAD37C0CEB4C0550
:1058700026FA05F606F00706B6F1040C06D20EEB82
:10588000860CBDE870404CF0010C6047DFE80CF07E
:10589000090B02024FF000414FF00000A1F500217A
:1058A00070BD19461046012851EB010418BFD4F50C
:1058B000001484BF002001F0004170BD0808A0F56D
:1058C00000114FEA3101704753EA010C17D41CF55F
:1058D000801F58BFBCF5801F00F106808B4218BFA7
:1058E000704708BF8242704707D713F5801F58BF23
:1058F00011F5801F19D48B4270479B4270471CF5ED
:10590000801F08D5BCF5801FF7D5994218BF704796
:1059100008BF904270474FF4001C1CEB430F38BF88
:105920001CEB410F01D2994270470FB40CBC03BC71
:10593000FFF7C1BE91EA030F10B581F000413FF5BA
:1059400025AC83F0004300F0EFB800002DE9F041F2
:1059500001F5801CBCF5001FC0F2C3804FEA115C4A
:1059600021EA0C510CF1FD0C41F480115FEA5C0C52
:105970000CF5C07C01D3400049413DA4890241EAB5
:10598000905187028E0E0A0CA45D04FB04F602FB04
:1059900006F6C6F14046A4FB0662F60D46EA42262C
:1059A00006FB06F4A4FB01235242C3F1404338BF77
:1059B0005B1EA6FB02420024E6FB0324D20B42EA54
:1059C0004446A6FB0623A1FB02E2A3FB07E4A418BE
:1059D0004FF0000252F10002E3FB01426442C2F1C7
:1059E000404E38BFAEF1010EA6FB04234FF000027B
:1059F000E6FB0E32A2FB03464FF00004B61954F149
:105A00000004E2FB0264A1FB06E6A4FB07E816EB38
:105A100008064FF0000858F10008E4FB01687642E0
:105A2000C8F1405838BFA8F10108A2FB06E4A3FB67
:105A300008E52D194FF0000454F10004E2FB08546E
:105A4000A1FB05E6A7FB04E818EB06084FF00006EB
:105A500056F10006E1FB048618F1200556F1000618
:105A6000A809A8F11B08B10908F03F08B8F10A0F0E
:105A700040EA86601CD901EB0C51BDE8F08100BF03
:105A8000FCF5EEE8E2DDD8D3CFCBC7C3C0BDB9B6D5
:105A9000B4B1AEACA9A7A5A3A19F9D9B9A989695DA
:105AA0009392908F8D8C8B89888786858483828161
:105AB000A0FB006800FB01F208EB4208B8EB872866
:105AC00007D5341858EB0104D5D5401C51F100011D
:105AD000D1E7341A78EB0104CDD4401E71F10001F6
